:020000040000FA
:100000000C9463000C948B000C948B000C948B006C
:100010000C948B000C948B000C948B000C946C054E
:100020000C948B000C948B000C948B000C948B0024
:100030000C948B000C948B000C948B000C948B0014
:100040000C9422050C948B000C94EE050C94C805BE
:100050000C948B000C948B000C948B000C948B00F4
:100060000C948B000C948B000000000024002700EF
:100070002A000000000023002600290000000008DC
:10008000000201000003040700000000000000005F
:10009000010204081020408001020408102001021F
:1000A0000408102000000000250028002B00040494
:1000B0000404040404040202020202020303030310
:1000C00003030200130811241FBECFEFD8E0DEBFE8
:1000D000CDBF11E0A0E0B1E0E6E4F1E102C005909F
:1000E0000D92AC32B107D9F721E0ACE2B1E001C02A
:1000F0001D92A73EB207E1F710E0C3E6D0E004C0CE
:100100002197FE010E948C08C236D107C9F70E94D0
:1001100020060C94A1080C940000833081F028F490
:10012000813099F08230A9F008958730A9F08830A5
:10013000C9F08430B1F4809180008F7D03C080913C
:1001400080008F7780938000089584B58F7784BD79
:10015000089584B58F7DFBCF8091B0008F77809319
:10016000B00008958091B0008F7DF9CFCF93DF93D9
:10017000282F30E0F901E458FF4F8491F901E0574E
:10018000FF4FD491F901E255FF4FC491CC23A1F068
:1001900081110E948D00EC2FF0E0EE0FFF1FEE5852
:1001A000FF4FA591B491EC91ED2381E090E009F42B
:1001B00080E0DF91CF91089580E090E0FACFCF9377
:1001C000DF9390E0FC01E057FF4F249182559F4F51
:1001D000FC0184918823D1F090E0880F991FFC01E5
:1001E000E859FF4FA591B491FC01EC55FF4FC59123
:1001F000D49161110EC09FB7F8948C91E22FE095D5
:100200008E238C932881E223E8839FBFDF91CF91D7
:1002100008958FB7F894EC91E22BEC938FBFF6CF53
:100220004F925F926F927F928F929F92AF92BF9206
:10023000CF92DF92EF92FF920F931F93CF93DF93B2
:1002400000D000D01F92CDB7DEB78C012A013B0150
:10025000809100018230C9F08F3F09F47FC00F9078
:100260000F900F900F900F90DF91CF911F910F91F2
:10027000FF90EF90DF90CF90BF90AF909F908F90C6
:100280007F906F905F904F900895E2ECF0E0849142
:100290008D8387FDE4CF61E082E00E94DF008D81E5
:1002A000882321F09D81923009F05CC14801B12C76
:1002B000A12C60E072E18AE790E0A50198010E941C
:1002C000620829833A834B835C8369017A0181E068
:1002D000C81AD108E108F1089FEFC916D104E1045A
:1002E000F10409F00CF413C160E472E48FE090E0D3
:1002F000A50198010E94620869017A0181E0C81A8B
:10030000D108E108F1089D81923009F098C08FEF83
:10031000C816D104E104F10409F00CF4DDC160E970
:1003200070ED83E090E0A50198010E9462086901E8
:100330007A0191E0C91AD108E108F1088FEFC816D7
:10034000D104E104F10411F00CF0A3C183E0909119
:10035000B100987F892B8093B100E1C082E0809347
:100360000001E2ECF0E094919D839F3F09F477CF88
:10037000913029F158F0923009F43FC08D8187FD0A
:100380006ECF61E082E00E94DF008CCF14BC15BC10
:1003900084B5826084BD85B5816085BDE0EBF0E009
:1003A000E491F0E0EE0FFF1FEC55FF4F8591949123
:1003B000E2E9F0E0E491E093DA011D826CCF109263
:1003C000800010928100809181008860809381007C
:1003D00080918100816080938100E0EBF0E0E49106
:1003E000F0E0EE0FFF1FEC55FF4F85919491E2E98D
:1003F000F0E0E491E093D9014ECF1092B00010925A
:10040000B1008091B00082608093B0008091B10013
:1004100081608093B100E0EBF0E0E491F0E0EE0F5A
:10042000FF1FEC55FF4F859194919093D8018093D5
:10043000D701E2E9F0E0E491E093D6012CCF9FEF01
:10044000C916D104E104F10409F00CF489C068E490
:1004500078EE81E090E0A50198010E9462086901B0
:100460007A0181E0C81AD108E108F1089D81992339
:1004700009F428C19FEFC916D104E104F10409F081
:100480000CF41EC162E17AE780E090E0A5019401DE
:100490000E94620869017A0181E0C81AD108E10866
:1004A000F1089D81992309F4EBC08FEFC816D104A0
:1004B000E104F10411F008F0BFC086E048CF64E227
:1004C00074EF80E090E0A50194010E946208690148
:1004D0007A0181E0C81AD108E108F10885E09FEFB0
:1004E000C916D104E104F10409F008F430CF62E147
:1004F0007AE780E090E0A50194010E94620869011A
:100500007A0191E0C91AD108E108F108CECF81E063
:100510009D8191111CCF95B5987F892B85BD2FEFBB
:100520003FEFA901411451046104710409F043C073
:100530009D81913009F45EC0923009F46DC0911133
:100540008ECEC7BC2093E3013093E4014093E501D4
:100550005093E60180916E00826080936E007FCEA2
:1005600082E0D6CFB12CA12C60E072E18AE790E066
:10057000A50198010E94620869017A0181E0C81A08
:10058000D108E108F108C114D10491E0E906F104B1
:1005900004F591E08D81813011F680918100887F92
:1005A000892B809381002FEF3FEFA9014114510463
:1005B00061047104F9F0D801AA0FBB1FA3019201D5
:1005C0000E94810828EE33E040E050E00E9440089D
:1005D000AFCF68E478EE81E090E0A50198010E9439
:1005E000620869017A0181E0C81AD108E108F108BE
:1005F00093E0D0CFD0928900C09288002093DF0191
:100600003093E0014093E1015093E20180916F004B
:10061000826080936F0023CEC092B3002093DB01F1
:100620003093DC014093DD015093DE018091700036
:1006300082608093700013CEC980DA80EB80FC80EA
:100640009AE0F594E794D794C7949A95D1F791E0FE
:10065000C91AD108E108F10887E079CEC980DA80AB
:10066000EB80FC808AE0F594E794D794C7948A9550
:10067000D1F791E0C91AD108E108F10885E04BCF24
:100680008FEFC816D104E104F10409F038F784E0D3
:1006900042CF68E478EE81E090E0A50198010E94E5
:1006A000620869017A0191E0C91AD108E108F108EC
:1006B0008FEFC816D104E104F10411F00CF0FFCE65
:1006C00084E045CE8FEFC816D104E104F10411F0A7
:1006D0000CF0D8CE83E01FCF82E039CE3FB7F8943C
:1006E0008091D2019091D301A091D401B091D50114
:1006F00026B5A89B05C02F3F19F00196A11DB11D7D
:100700003FBFBA2FA92F982F8827BC01CD01620FB8
:10071000711D811D911D42E0660F771F881F991F73
:100720004A95D1F708958F929F92AF92BF92CF9240
:10073000DF92EF92FF924B015C010E946E036B010E
:100740007C010E946E036C197D098E099F09683E29
:10075000734081059105A8F321E0821A9108A10850
:10076000B10888EEC80E83E0D81EE11CF11C81148C
:100770009104A104B10429F7FF90EF90DF90CF908E
:10078000BF90AF909F908F900895CF93DF939091FB
:10079000000189130BC0E2ECF0E0E4919FEF90932D
:1007A0000001E13059F138F1E23071F1282F30E0E9
:1007B000F901E458FF4F8491F901E057FF4FD491BC
:1007C000F901E255FF4FC491CC2391F081110E94B1
:1007D0008D00EC2FF0E0EE0FFF1FEC55FF4FA591C1
:1007E000B4918FB7F894EC91D095DE23DC938FBF52
:1007F000DF91CF91089510926E00D8CF90916F0045
:100800009D7F90936F00D2CF909170009D7F9093C9
:10081000700091E09093B0009091B100987F946047
:100820009093B1001092B300C1CFAF92BF92CF921C
:10083000DF92EF92FF920F931F93CF93DF936C01A0
:100840007B018B01040F151FEB015E01AE18BF0881
:10085000C017D10759F06991D601ED91FC91019033
:10086000F081E02DC6010995892B79F7C501DF914B
:10087000CF911F910F91FF90EF90DF90CF90BF909D
:10088000AF900895FC01538D448D252F30E0842FC7
:1008900090E0821B930B541710F0CF9608950197A8
:1008A0000895FC01918D828D981761F0A28DAE0F95
:1008B000BF2FB11D5D968C91928D9F5F9F73928F1C
:1008C00090E008958FEF9FEF0895FC01918D828D48
:1008D000981731F0828DE80FF11D858D90E0089515
:1008E0008FEF9FEF0895FC01918D228D892F90E06D
:1008F000805C9F4F821B91098F73992708958CE22A
:1009000091E00E94730421E0892B09F420E0822FFA
:10091000089580E090E0892B29F00E947F048111E6
:100920000C9400000895FC01A48DA80FB92FB11DEF
:10093000A35ABF4F2C91848D90E001968F73992715
:10094000848FA689B7892C93A089B1898C918370F3
:1009500080648C93938D848D981306C00288F389EC
:10096000E02D80818F7D80830895EF92FF920F9319
:100970001F93CF93DF93EC0181E0888F9B8D8C8D4B
:1009800098131AC0E889F989808185FF15C09FB73F
:10099000F894EE89FF896083E889F9898081837002
:1009A000806480839FBF81E090E0DF91CF911F91B1
:1009B0000F91FF90EF900895F62E0B8D10E00F5FD2
:1009C0001F4F0F731127E02E8C8D8E110CC00FB6A8
:1009D00007FCFACFE889F989808185FFF5CFCE0140
:1009E0000E949304F1CFEB8DEC0FFD2FF11DE35A24
:1009F000FF4FF0829FB7F8940B8FEA89FB898081C3
:100A00008062CFCFCF93DF93EC01888D8823B9F03C
:100A1000AA89BB89E889F9898C9185FD03C0808109
:100A200086FD0DC00FB607FCF7CF8C9185FFF2CF86
:100A3000808185FFEDCFCE010E949304E9CFDF9145
:100A4000CF9108951F920F920FB60F9211242F93FA
:100A50003F938F939F93AF93BF938091CE019091DB
:100A6000CF01A091D001B091D1013091CD0123E00F
:100A7000230F2D3758F50196A11DB11D2093CD01EF
:100A80008093CE019093CF01A093D001B093D10178
:100A90008091D2019091D301A091D401B091D50160
:100AA0000196A11DB11D8093D2019093D301A09313
:100AB000D401B093D501BF91AF919F918F913F9198
:100AC0002F910F900FBE0F901F90189526E8230FBF
:100AD0000296A11DB11DD2CF1F920F920FB60F9299
:100AE00011242F933F934F935F936F937F938F9333
:100AF0009F93AF93BF93EF93FF938091DB0190910E
:100B0000DC01A091DD01B091DE01892B8A2B8B2BBA
:100B1000D1F19091D601E091D701F091D801808177
:100B2000892780838091DB019091DC01A091DD0118
:100B3000B091DE01181619061A061B069CF4809166
:100B4000DB019091DC01A091DD01B091DE01019704
:100B5000A109B1098093DB019093DC01A093DD0131
:100B6000B093DE01FF91EF91BF91AF919F918F9173
:100B70007F916F915F914F913F912F910F900FBE99
:100B80000F901F901895809100010E94C503EACF35
:100B90001F920F920FB60F9211242F933F934F93F2
:100BA0005F936F937F938F939F93AF93BF93EF93D5
:100BB000FF938CE291E00E949304FF91EF91BF912B
:100BC000AF919F918F917F916F915F914F913F91E5
:100BD0002F910F900FBE0F901F9018951F920F929C
:100BE0000FB60F9211242F938F939F93EF93FF9340
:100BF000E0913C01F0913D018081E0914201F09152
:100C0000430182FD1BC09081809145018F5F8F73EE
:100C100020914601821741F0E0914501F0E0E45D4A
:100C2000FE4F958F80934501FF91EF919F918F919A
:100C30002F910F900FBE0F901F9018958081F4CFC9
:100C4000789484B5826084BD84B5816084BD85B5A7
:100C5000826085BD85B5816085BD80916E008160B3
:100C600080936E0010928100809181008260809359
:100C7000810080918100816080938100809180005B
:100C80008160809380008091B10084608093B10086
:100C90008091B00081608093B00080917A00846080
:100CA00080937A0080917A00826080937A008091AC
:100CB0007A00816080937A0080917A0080688093C6
:100CC0007A001092C100E0913C01F0913D0182E078
:100CD0008083E0913801F09139011082E0913A016E
:100CE000F0913B018FEC808310924401E091400130
:100CF000F091410186E08083E0913E01F0913F0157
:100D0000808180618083E0913E01F0913F0180818C
:100D100088608083E0913E01F0913F01808180688E
:100D20008083E0913E01F0913F0180818F7D80833F
:100D300060E083E00E94DF0060E084E00E94DF006A
:100D400087E2C82E81E0D82E90E0E92E90E0F92EBF
:100D500083E00E94B6008C019093CC018093CB017C
:100D600084E00E94B600EC019093CA018093C9010F
:100D70000130110509F010C140E050E0BA018DE9E1
:100D800092E00E94100168E572E080E090E00E942D
:100D9000930340E050E0BA0187EB91E00E9410011C
:100DA00060E971E080E090E00E94930340E050E051
:100DB000BA0183E392E00E9410016EE571E080E0E9
:100DC00090E00E94930340E050E0BA0183EE92E08D
:100DD0000E9410016AEF70E080E090E00E949303AF
:100DE00040E050E0BA0181E791E00E94100160E923
:100DF00071E080E090E00E94930340E050E0BA018F
:100E00008BE192E00E94100168E572E080E090E0E2
:100E10000E94930340E050E0BA0188E492E00E940F
:100E2000100160E971E080E090E00E94930340E0EF
:100E300050E0BA0187EB91E00E94100160E971E097
:100E400080E090E00E94930340E050E0BA0186E821
:100E500091E00E94100160E971E080E090E00E9462
:100E6000930340E050E0BA0188E892E00E9410014C
:100E700060E971E080E090E00E94930382E00E94CC
:100E8000C50364EF71E080E090E00E94930340E0CE
:100E900050E0BA018DE992E00E94100168E572E02D
:100EA00080E090E00E94930340E050E0BA0187EBBD
:100EB00091E00E94100160E971E080E090E00E9402
:100EC000930340E050E0BA0183E392E00E941001F6
:100ED0006EE571E080E090E00E94930340E050E016
:100EE000BA0183EE92E00E9410016AEF70E080E0A8
:100EF00090E00E94930340E050E0BA0181E791E066
:100F00000E94100160E971E080E090E00E9493038C
:100F100040E050E0BA018BE192E00E94100168E5E8
:100F200072E080E090E00E94930340E050E0BA015C
:100F300088E492E00E94100160E971E080E090E0B6
:100F40000E94930340E050E0BA0187EB91E00E94D9
:100F5000100160E971E080E090E00E94930340E0BE
:100F600050E0BA0180E891E00E94100160E971E070
:100F700080E090E00E94930340E050E0BA0188E8EE
:100F800092E00E94100160E971E080E090E00E9430
:100F9000930382E00E94C5032197C9F540E050E029
:100FA000BA0188EB91E00E94100168EE73E080E0E6
:100FB00090E00E94930382E00E94C50364EF71E019
:100FC00080E090E00E9493034CE251E060E070E02A
:100FD0008BE092E00E94100164EF71E080E090E00D
:100FE0000E949303C3E1D1E040E050E0BA0189914F
:100FF00099910E94100164EF71E080E090E00E94FE
:101000009303CC16DD0681F782E00E94C503E1144C
:10101000F10409F49DCE0E947F04882309F498CE40
:101020000E94000095CEECE2F1E01382128288EE7D
:1010300093E0A0E0B0E084839583A683B78385E046
:1010400091E09183808385EC90E09587848784ECA0
:1010500090E09787868780EC90E0918B808B81EC85
:1010600090E0938B828B82EC90E0958B848B86EC66
:1010700090E0978B868B118E128E138E148E0895AE
:10108000A1E21A2EAA1BBB1BFD010DC0AA1FBB1F8C
:10109000EE1FFF1FA217B307E407F50720F0A21BFE
:1010A000B30BE40BF50B661F771F881F991F1A946B
:1010B00069F760957095809590959B01AC01BD0195
:1010C000CF010895052E97FB1EF400940E94790825
:1010D00057FD07D00E94400807FC03D04EF40C9443
:1010E000790850954095309521953F4F4F4F5F4F70
:1010F000089590958095709561957F4F8F4F9F4F84
:1011000008950E949208A59F900DB49F900DA49FF2
:10111000800D911D11240895EE0FFF1F0590F4918D
:10112000E02D0994A29FB001B39FC001A39F700D51
:10113000811D1124911DB29F700D811D1124911DDF
:101140000895F894FFCFFF00000000B50415044295
:1011500004020573045104650405011501260137D5
:10116000014A015D01720188019F01B801D201EEBF
:0211700001007C
:107E0000112484B714BE81FFF0D085E080938100F7
:107E100082E08093C00088E18093C10086E0809377
:107E2000C20080E18093C4008EE0C9D0259A86E02C
:107E300020E33CEF91E0309385002093840096BBD3
:107E4000B09BFECF1D9AA8958150A9F7CC24DD24C4
:107E500088248394B5E0AB2EA1E19A2EF3E0BF2EE7
:107E6000A2D0813461F49FD0082FAFD0023811F036
:107E7000013811F484E001C083E08DD089C08234E0
:107E800011F484E103C0853419F485E0A6D080C0E4
:107E9000853579F488D0E82EFF2485D0082F10E0AE
:107EA000102F00270E291F29000F111F8ED06801E7
:107EB0006FC0863521F484E090D080E0DECF843638
:107EC00009F040C070D06FD0082F6DD080E0C81688
:107ED00080E7D80618F4F601B7BEE895C0E0D1E017
:107EE00062D089930C17E1F7F0E0CF16F0E7DF06D8
:107EF00018F0F601B7BEE89568D007B600FCFDCFD4
:107F0000A601A0E0B1E02C9130E011968C91119780
:107F100090E0982F8827822B932B1296FA010C0160
:107F200087BEE89511244E5F5F4FF1E0A038BF0790
:107F300051F7F601A7BEE89507B600FCFDCF97BE46
:107F4000E89526C08437B1F42ED02DD0F82E2BD052
:107F50003CD0F601EF2C8F010F5F1F4F84911BD097
:107F6000EA94F801C1F70894C11CD11CFA94CF0C13
:107F7000D11C0EC0853739F428D08EE10CD085E9AC
:107F80000AD08FE07ACF813511F488E018D01DD067
:107F900080E101D065CF982F8091C00085FFFCCF94
:107FA0009093C60008958091C00087FFFCCF809118
:107FB000C00084FD01C0A8958091C6000895E0E648
:107FC000F0E098E1908380830895EDDF803219F02E
:107FD00088E0F5DFFFCF84E1DECF1F93182FE3DFCA
:107FE0001150E9F7F2DF1F91089580E0E8DFEE27F6
:047FF000FF270994CA
:027FFE00040479
:00000001FF
