:100000000C9462000C948A000C948A000C948A0070
:100010000C948A000C948A000C948A000C948A0038
:100020000C948A000C948A000C948A000C94DB03D4
:100030000C948A000C948A000C948A000C948A0018
:100040000C9439030C948A000C94A9030C94830338
:100050000C948A000C948A000C948A000C948A00F8
:100060000C948A000C948A000000000024002700F1
:100070002A0000000000250028002B0000000000DE
:1000800023002600290004040404040404040202DA
:100090000202020203030303030301020408102007
:1000A0004080010204081020010204081020000012
:1000B0000008000201000003040700000000000027
:1000C0000000970411241FBECFEFD8E0DEBFCDBFE4
:1000D00011E0A0E0B1E0E8EEFDE002C005900D9275
:1000E000A631B107D9F721E0A6E1B1E001C01D9228
:1000F000AF3EB207E1F710E0C2E6D0E004C02197BE
:10010000FE010E94EC06C136D107C9F70E94F40433
:100110000C94F2060C940000CF92DF92EF92FF92C3
:10012000DC01A03282E0B807D4F5A53BB10514F09C
:10013000A4EBB0E04091ED0128E830E0241B310948
:1001400047FD3395220F331F220F331F6901330FF1
:10015000EE08FF084091EE0128E532E0241B31094A
:1001600047FD3395220F331F220F331F032E000C40
:10017000440B550B2C193D094E095F09B7FF02C00E
:10018000B0E0A0E00E94A70624EB30E040E050E0A1
:100190000E947D06C20ED31EE41EF51ED601E0911C
:1001A000EC01EC3080F52091ED0188E890E0821BB5
:1001B000910927FD9395880F991F880F991FA817FC
:1001C000B90784F02091EE0188E592E0821B910945
:1001D00027FD9395880F991F880F991FA817B907B6
:1001E0000CF4CD010297880F991F4FB7F8942E2F6A
:1001F00030E0F901EE0FFF1FE20FF31FE953FE4F4E
:10020000928381834FBFFF90EF90DF90CF9008954E
:10021000833081F028F4813099F08230A9F008957C
:100220008730A9F08830C9F08430B1F48091800023
:100230008F7D03C0809180008F7780938000089528
:1002400084B58F7784BD089584B58F7DFBCF809171
:10025000B0008F778093B00008958091B0008F7DBB
:10026000F9CFCF93DF93282F30E0F901E255FF4F0C
:100270008491F901E656FF4FD491F901EA57FF4FF7
:10028000C491CC23A1F081110E940801EC2FF0E071
:10029000EE0FFF1FE458FF4FA591B491EC91ED23B1
:1002A00081E090E009F480E0DF91CF91089580E053
:1002B00090E0FACF1F93CF93DF93282F30E0F9011E
:1002C000E255FF4F8491F901E656FF4FD491F901B1
:1002D000EA57FF4FC491CC23A9F0162F81110E9439
:1002E0000801EC2FF0E0EE0FFF1FEE58FF4FA59135
:1002F000B4918FB7F894EC91111108C0D095DE231A
:10030000DC938FBFDF91CF911F910895DE2BF8CF43
:10031000CF93DF9390E0FC01E656FF4F24918A577C
:100320009F4FFC0184918823D1F090E0880F991FA2
:10033000FC01E859FF4FA591B491FC01EE58FF4F25
:10034000C591D49161110EC09FB7F8948C91E22FA2
:10035000E0958E238C932881E223E8839FBFDF9171
:10036000CF9108958FB7F894EC91E22BEC938FBF67
:10037000F6CF3FB7F8948091260190912701A09184
:100380002801B091290126B5A89B05C02F3F19F07F
:100390000196A11DB11D3FBFBA2FA92F982F882705
:1003A000BC01CD01620F711D811D911D42E0660FE0
:1003B000771F881F991F4A95D1F70895AF92BF9272
:1003C000CF92DF92EF92FF920F931F93CF93DF9321
:1003D0006C017B018B01040F151FEB015E01AE1850
:1003E000BF08C017D10759F06991D601ED91FC9172
:1003F0000190F081E02DC6010995892B79F7C5019F
:10040000DF91CF911F910F91FF90EF90DF90CF90F0
:10041000BF90AF900895FC01538D448D252F30E09F
:10042000842F90E0821B930B541710F0CF96089501
:1004300001970895FC01918D828D981761F0A28D2E
:10044000AE0FBF2FB11D5D968C91928D9F5F9F73F4
:10045000928F90E008958FEF9FEF0895FC01918DAA
:10046000828D981731F0828DE80FF11D858D90E017
:1004700008958FEF9FEF0895FC01918D228D892FB4
:1004800090E0805C9F4F821B91098F73992708959C
:100490008AE291E00E943C0221E0892B09F420E0ED
:1004A000822F089580E090E0892B29F00E94480275
:1004B00081110C9400000895FC01A48DA80FB92FA0
:1004C000B11DA35ABF4F2C91848D90E001968F737C
:1004D0009927848FA689B7892C93A089B1898C919B
:1004E000837080648C93938D848D981306C00288EA
:1004F000F389E02D80818F7D80830895EF92FF92B4
:100500000F931F93CF93DF93EC0181E0888F9B8D36
:100510008C8D98131AC0E889F989808185FF15C0F0
:100520009FB7F894EE89FF896083E889F989808113
:100530008370806480839FBF81E090E0DF91CF91E2
:100540001F910F91FF90EF900895F62E0B8D10E004
:100550000F5F1F4F0F731127E02E8C8D8E110CC073
:100560000FB607FCFACFE889F989808185FFF5CFBE
:10057000CE010E945C02F1CFEB8DEC0FFD2FF11D3F
:10058000E35AFF4FF0829FB7F8940B8FEA89FB89FB
:1005900080818062CFCFCF93DF93EC01888D882359
:1005A000B9F0AA89BB89E889F9898C9185FD03C0D6
:1005B000808186FD0DC00FB607FCF7CF8C9185FFBB
:1005C000F2CF808185FFEDCFCE010E945C02E9CFA2
:1005D000DF91CF9108958F929F92AF92BF920F9328
:1005E0001F93CF93DF93CDB7DEB7A1970FB6F894E3
:1005F000DEBF0FBECDBF19A2423008F44AE08E0123
:100600000F5D1F4F842E912CB12CA12CA5019401BC
:100610000E94AF06E62FB901CA01EA3044F5E05D59
:10062000D801EE938D01232B242B252B79F790E015
:1006300080E0109769F0FD0101900020E9F7319703
:10064000AF014A1B5B0BBD018AE291E00E94DE0113
:10065000A1960FB6F894DEBF0FBECDBFDF91CF914C
:100660001F910F91BF90AF909F908F900895E95C7C
:10067000D7CF1F920F920FB60F9211242F933F9353
:100680008F939F93AF93BF93809122019091230109
:10069000A0912401B09125013091210123E0230F85
:1006A0002D3758F50196A11DB11D2093210180938E
:1006B000220190932301A0932401B09325018091FE
:1006C000260190912701A0912801B091290101965E
:1006D000A11DB11D8093260190932701A0932801AD
:1006E000B0932901BF91AF919F918F913F912F912D
:1006F0000F900FBE0F901F90189526E8230F0296BB
:10070000A11DB11DD2CF1F920F920FB60F921124CF
:100710002F933F934F935F936F937F938F939F9309
:10072000AF93BF93EF93FF938AE291E00E945C0244
:10073000FF91EF91BF91AF919F918F917F916F91B9
:100740005F914F913F912F910F900FBE0F901F908F
:1007500018951F920F920FB60F9211242F938F931B
:100760009F93EF93FF93E0913A01F0913B018081D9
:10077000E0914001F091410182FD1BC09081809188
:1007800043018F5F8F7320914401821741F0E09104
:100790004301F0E0E65DFE4F958F80934301FF91AA
:1007A000EF919F918F912F910F900FBE0F901F90FF
:1007B00018958081F4CF1F920F920FB60F921124DB
:1007C0002F933F934F935F936F937F938F939F9359
:1007D000AF93BF93CF93DF93EF93FF938091160175
:1007E000C091EB01D0E087FF24C0109285001092E9
:1007F0008400809116018F5F80931601809116010D
:10080000082E000C990B8C179D0724F4809116017B
:100810008C30C4F1809184009091850004968034DE
:100820009C4908F47AC080918400909185000496D8
:1008300076C080911601082E000C990B8C179D072D
:10084000C4F6E09116018E2FEE0F990BFC01EE0F0E
:10085000FF1FE80FF91FE953FE4F808186FFC9CFC4
:10086000E09116018E2FEE0F990BFC01EE0FFF1F8A
:10087000E80FF91FE953FE4F808160E08F730E94FB
:100880005A01B7CF2091840030918500E091160184
:100890008E2FEE0F990BFC01EE0FFF1FE80FF91FD3
:1008A000E953FE4F81819281820F931F90938900BB
:1008B00080938800E09116018E2FEE0F990BFC01BA
:1008C000EE0FFF1FE80FF91FE953FE4F808186FFEF
:1008D00011C0E09116018E2FEE0F990BFC01EE0F67
:1008E000FF1FE80FF91FE953FE4F808161E08F730E
:1008F0000E945A01FF91EF91DF91CF91BF91AF918B
:100900009F918F917F916F915F914F913F912F9127
:100910000F900FBE0F901F90189580E49CE9909364
:100920008900809388008FEF80931601E3CF1092A7
:100930002D0110922C0188EE93E0A0E0B0E08093AE
:100940002E0190932F01A0933001B093310184E0E8
:1009500091E090932B0180932A0185EC90E0909395
:1009600037018093360184EC90E0909339018093B5
:10097000380180EC90E090933B0180933A0181EC48
:1009800090E090933D0180933C0182EC90E0909345
:100990003F0180933E0186EC90E09093410180936B
:1009A00040011092430110924401109245011092AF
:1009B00046018091EB018C3098F491E0980F909370
:1009C000EB018093EC0190E0FC01EE0FFF1FE80FBC
:1009D000F91FE953FE4F88EB9BE0928381830895D2
:1009E0008FEF8093EC010895789484B5826084BD84
:1009F00084B5816084BD85B5826085BD85B5816023
:100A000085BD80916E00816080936E0010928100A0
:100A1000809181008260809381008091810081605B
:100A2000809381008091800081608093800080911C
:100A3000B10084608093B1008091B00081608093A8
:100A4000B00080917A00846080937A0080917A006F
:100A5000826080937A0080917A00816080937A002E
:100A600080917A00806880937A001092C100E091B2
:100A70003A01F0913B0182E08083E0913601F091F0
:100A800037011082E0913801F09139018FEC8083B9
:100A900010924201E0913E01F0913F0186E0808397
:100AA000E0913C01F0913D01808180618083E09183
:100AB0003C01F0913D01808188608083E0913C01A0
:100AC000F0913D01808180688083E0913C01F0914C
:100AD0003D0180818F7D808360E082E00E948801FB
:100AE00060E083E00E94880160E084E00E94880169
:100AF00060E085E00E94880161E088E00E94880152
:100B00008091EC018C3008F051C061E08AE00E94D5
:100B100088018091EC01282F30E0F901EE0FFF1FD2
:100B2000E20FF31FE953FE4F9081907C9A6090830F
:100B30001092ED011092EE012CE0622F0E94E0066F
:100B4000829FB001112430E020E0AB01420F531F1F
:100B5000FA01EE0FFF1FE40FF51FE953FE4F9081DE
:100B600096FD16C02F5F3F4F2C30310571F7811174
:100B70000FC01092800082E0809381001092850067
:100B800010928400B19A80916F00826080936F0010
:100B9000E091EC018E2F90E0FC01EE0FFF1FE80FBB
:100BA000F91FE953FE4F808180648083C0E0D0E06C
:100BB00082E00E9431019093200180931F016C011B
:100BC000990FEE08FF084AE0C701B601F7FE0DC015
:100BD0006DE28AE291E00E947E0266277727CB01D0
:100BE0006C197D098E099F094AE00E94EB0242E0E0
:100BF00050E062E171E08AE291E00E94DE0183E070
:100C00000E9431014C0190931E0180931D0184E0EC
:100C10000E9431015C0190931C0180931B0185E0CF
:100C20000E9431016C0190931A018093190186E0B2
:100C30000E9431017C0190931801809317018091EB
:100C40001F0190912001019721F48DE290E00E9414
:100C50008C008A94892821F48AE590E00E948C0017
:100C6000AA94AB2821F487E890E00E948C00CA94F3
:100C7000CD2821F484EB90E00E948C00EA94EF28C8
:100C800089F590E080E00E948C0061E088E00E949D
:100C90005A010E94B9014B015C0188EEC82E83E025
:100CA000D82EE12CF12C0E94B901681979098A0922
:100CB0009B09683E734081059105A8F321E0C21AA3
:100CC000D108E108F10888EE880E83E0981EA11C87
:100CD000B11CC114D104E104F10429F760E088E0FB
:100CE0000E945A01209709F463CF0E94480288238A
:100CF00009F45ECF0E9400005BCF052E97FB1EF427
:100D000000940E94940657FD07D00E94AF0607FC8E
:100D100003D04EF40C94940650954095309521954F
:100D20003F4F4F4F5F4F0895909580957095619517
:100D30007F4F8F4F9F4F08950E94D106A59F900D22
:100D4000B49F900DA49F800D911D11240895B7FFAD
:100D50000C949C060E949C06821B930B0895A1E2B2
:100D60001A2EAA1BBB1BFD010DC0AA1FBB1FEE1F25
:100D7000FF1FA217B307E407F50720F0A21BB30B70
:100D8000E40BF50B661F771F881F991F1A9469F7EC
:100D900060957095809590959B01AC01BD01CF0148
:100DA0000895A29FB001B39FC001A39F700D811D44
:100DB0001124911DB29F700D811D1124911D089564
:100DC000991B79E004C0991F961708F0961B881F9D
:100DD0007A95C9F780950895EE0FFF1F0590F4915D
:080DE000E02D0994F894FFCF07
:100DE800000000007E02DE010B02CB023C021A0268
:060DF8002E020D0A0000AE
:00000001FF
